{
  "contractName": "ConvertLib",
  "abi": [
    {
      "constant": false,
      "inputs": [
        {
          "name": "amount",
          "type": "uint256"
        },
        {
          "name": "conversionRate",
          "type": "uint256"
        }
      ],
      "name": "convert",
      "outputs": [
        {
          "name": "convertedAmount",
          "type": "uint256"
        }
      ],
      "payable": false,
      "type": "function"
    }
  ],
  "bytecode": "0x60606040523415600e57600080fd5b60898061001c6000396000f300606060405263ffffffff7c010000000000000000000000000000000000000000000000000000000060003504166396e4ee3d8114603b57600080fd5b60476004356024356059565b60405190815260200160405180910390f35b02905600a165627a7a72305820510b0cd3e9cfb8e59993b83dda864ab897fa8057e04dcab6a06ce2dcd245ab020029",
  "source": "pragma solidity ^0.4.4;\n\nlibrary ConvertLib{\n\tfunction convert(uint amount,uint conversionRate) returns (uint convertedAmount)\n\t{\n\t\treturn amount * conversionRate;\n\t}\n}\n",
  "sourcePath": "/Users/danielternyak2/ActiveDevelopment/DevDAOReal/contracts/ConvertLib.sol",
  "schemaVersion": "1.0.0",
  "updatedAt": "2017-10-30T04:58:54.728Z",
  "contract_name": "ConvertLib",
  "unlinked_binary": "0x60606040523415600e57600080fd5b5b60908061001d6000396000f300606060405263ffffffff7c010000000000000000000000000000000000000000000000000000000060003504166396e4ee3d8114603c575b600080fd5b6048600435602435605a565b60405190815260200160405180910390f35b8181025b929150505600a165627a7a72305820d08c47fd8a91a238dfabb96756b68b688a296dfaee29f830e9ea04482f4c5d000029",
  "schema_version": "0.0.5",
  "updated_at": 1509410584919
}