{
  "contractName": "DevDao",
  "abi": [
    {
      "constant": false,
      "inputs": [
        {
          "name": "boardMember",
          "type": "address"
        }
      ],
      "name": "determineIfBoardMemberIsVotedOut",
      "outputs": [
        {
          "name": "",
          "type": "bool"
        },
        {
          "name": "",
          "type": "address"
        }
      ],
      "payable": false,
      "stateMutability": "nonpayable",
      "type": "function"
    },
    {
      "constant": false,
      "inputs": [
        {
          "name": "newCustodian",
          "type": "address"
        }
      ],
      "name": "getCurrentCustodian",
      "outputs": [
        {
          "name": "",
          "type": "address"
        }
      ],
      "payable": false,
      "stateMutability": "nonpayable",
      "type": "function"
    },
    {
      "constant": false,
      "inputs": [
        {
          "name": "newCustodian",
          "type": "address"
        }
      ],
      "name": "setCustodianVote",
      "outputs": [],
      "payable": false,
      "stateMutability": "nonpayable",
      "type": "function"
    },
    {
      "constant": false,
      "inputs": [],
      "name": "getBoardMembersAddresses",
      "outputs": [
        {
          "name": "",
          "type": "address[]"
        }
      ],
      "payable": false,
      "stateMutability": "nonpayable",
      "type": "function"
    },
    {
      "constant": false,
      "inputs": [
        {
          "name": "migrationAddress",
          "type": "address"
        },
        {
          "name": "weiAmount",
          "type": "uint256"
        }
      ],
      "name": "setMigrationAddress",
      "outputs": [],
      "payable": false,
      "stateMutability": "nonpayable",
      "type": "function"
    },
    {
      "constant": false,
      "inputs": [],
      "name": "isCallerBoardMember",
      "outputs": [
        {
          "name": "",
          "type": "bool"
        }
      ],
      "payable": false,
      "stateMutability": "nonpayable",
      "type": "function"
    },
    {
      "constant": false,
      "inputs": [
        {
          "name": "toAddress",
          "type": "address"
        },
        {
          "name": "weiAmount",
          "type": "uint256"
        }
      ],
      "name": "sendFunds",
      "outputs": [],
      "payable": false,
      "stateMutability": "nonpayable",
      "type": "function"
    },
    {
      "constant": false,
      "inputs": [
        {
          "name": "currentBoardMember",
          "type": "address"
        },
        {
          "name": "replacementBoardMember",
          "type": "address"
        }
      ],
      "name": "getCustodian",
      "outputs": [
        {
          "name": "",
          "type": "address"
        }
      ],
      "payable": false,
      "stateMutability": "nonpayable",
      "type": "function"
    },
    {
      "inputs": [
        {
          "name": "initialBoardMembers",
          "type": "address[]"
        }
      ],
      "payable": false,
      "stateMutability": "nonpayable",
      "type": "function",
      "constant": false,
      "name": "executeMigration",
      "outputs": []
    },
    {
      "payable": false,
      "stateMutability": "nonpayable",
      "type": "function",
      "constant": false,
      "inputs": [
        {
          "name": "currentBoardMember",
          "type": "address"
        },
        {
          "name": "replacementBoardMember",
          "type": "address"
        }
      ],
      "name": "setReplacementBoardMember",
      "outputs": []
    },
    {
      "inputs": [
        {
          "name": "initialBoardMembers",
          "type": "address[]"
        }
      ],
      "payable": false,
      "stateMutability": "nonpayable",
      "type": "constructor"
    },
    {
      "payable": true,
      "stateMutability": "payable",
      "type": "fallback"
    }
  ],
  "bytecode": "0x6060604052341561000f57600080fd5b604051610c92380380610c92833981016040528080519091019050600061003461014b565b82516007141561013e576003838051610051929160200190610173565b50600091505b825182101561013957806002600085858151811061007157fe5b90602001906020020151600160a060020a03168152602081019190915260400160002081518181518154600160a060020a031916600160a060020a039190911617815560208201516001919091018054600160a060020a031916600160a060020a03909216919091179055506020820151600282018054600160a060020a031916600160a060020a039290921691909117905560408201516003919091018054600160a060020a031916600160a060020a039092169190911790555060019190910190610057565b610143565b600080fd5b505050610218565b60806040519081016040528061015f6101da565b815260006020820181905260409091015290565b8280548282559060005260206000209081019282156101ca579160200282015b828111156101ca5782518254600160a060020a031916600160a060020a039190911617825560209290920191600190910190610193565b506101d69291506101f1565b5090565b604080519081016040526000808252602082015290565b61021591905b808211156101d6578054600160a060020a03191681556001016101f7565b90565b610a6b806102276000396000f300606060405236156100a15763ffffffff7c010000000000000000000000000000000000000000000000000000000060003504166303f35bb981146100a357806318043c5e146100e557806332c38420146101145780633a06270c146101335780634732a7dc146101995780635aae9369146101b85780636f64234e146101df578063c561d4b714610201578063c9d4693a14610214578063e9bdd88214610227575b005b34156100ae57600080fd5b6100c2600160a060020a036004351661024c565b6040519115158252600160a060020a031660208201526040908101905180910390f35b34156100f057600080fd5b6100f86103e7565b604051600160a060020a03909116815260200160405180910390f35b341561011f57600080fd5b6100a1600160a060020a03600435166103f6565b341561013e57600080fd5b610146610471565b60405160208082528190810183818151815260200191508051906020019060200280838360005b8381101561018557808201518382015260200161016d565b505050509050019250505060405180910390f35b34156101a457600080fd5b6100a1600160a060020a03600435166104d9565b34156101c357600080fd5b6101cb610522565b604051901515815260200160405180910390f35b34156101ea57600080fd5b6100a1600160a060020a0360043516602435610579565b341561020c57600080fd5b6100f86105c2565b341561021f57600080fd5b6100a16106bf565b341561023257600080fd5b6100a1600160a060020a03600435811690602435166106c1565b6000806102576109ee565b61025f6109ee565b60008080805b6003548410156103ca576002600060038681548110151561028257fe5b6000918252602080832090910154600160a060020a03908116845290830193909352604090910190208054600182015491955082169350169050818685815181106102c957fe5b600160a060020a03909216602092830290910190910152808585815181106102ed57fe5b600160a060020a03928316602091820290920181019190915283821660009081526004825260408082209385168252929091522054151561035657600160a060020a038083166000908152600460209081526040808320938516835292905220600190556103bf565b600160a060020a03828116600090815260046020908152604080832093851683529290522080546001019081905560051480156103a4575088600160a060020a031682600160a060020a0316145b156103bf576103b3868661075d565b600181975097506103dc565b600190930192610265565b6103d4868661075d565b600080975097505b505050505050915091565b600054600160a060020a031690565b6000610400610522565b905080156104685733600160a060020a039081166000908152600260208190526040909120018054600160a060020a0319169184169190911790556104436105c2565b60008054600160a060020a031916600160a060020a039290921691909117905561046d565b600080fd5b5050565b6104796109ee565b60038054806020026020016040519081016040528092919081815260200182805480156104cf57602002820191906000526020600020905b8154600160a060020a031681526001909101906020018083116104b1575b5050505050905090565b60006104e3610522565b905080156104685733600160a060020a0390811660009081526002602052604090206003018054600160a060020a03191691841691909117905561046d565b600080805b60035481101561057057600380548290811061053f57fe5b60009182526020909120015433600160a060020a03908116911614156105685760019150610570565b600101610527565b8192505b505090565b60005433600160a060020a03908116911614156104685781600160a060020a03168160405160006040518083038185876187965a03f192505050156105bd57600080fd5b61046d565b600080805b6003548210156106ae57600260006003848154811015156105e457fe5b6000918252602080832090910154600160a060020a039081168452838201949094526040928301822060028101549094168252600190522054909150151561064b576002810154600160a060020a03166000908152600160208190526040909120556106a3565b600281018054600160a060020a0390811660009081526001602081905260408083208054909201909155925490911681522054600514156106a35761068e6107f0565b6002810154600160a060020a03169250610574565b6001909101906105c7565b6106b66107f0565b60009250505090565b565b6106c9610a00565b60006106d3610522565b9050801561046857600160a060020a038085168352838116602080850191909152339091166000908152600290915260409020829081518154600160a060020a031916600160a060020a039190911617815560208201516001919091018054600160a060020a031916600160a060020a039092169190911790555061075784610840565b50505050565b60008080805b85518410156107e857600092505b84518310156107dd5785848151811061078657fe5b90602001906020020151915084838151811061079e57fe5b90602001906020020151600160a060020a0380841660009081526004602090815260408083209385168352929052908120556001909301929050610771565b600190930192610763565b505050505050565b60005b60035481101561083d576001600060038381548110151561081057fe5b6000918252602080832090910154600160a060020a031683528201929092526040018120556001016107f3565b50565b60008061084c8361024c565b91509150811561086a57610860838261086f565b61086a8382610967565b505050565b610877610a17565b600160a060020a0380841660009081526002602081905260408083208054600160a060020a03199081168255600182018054821690559281018054841690556003018054909216909155918416815220819081518181518154600160a060020a031916600160a060020a039190911617815560208201516001919091018054600160a060020a031916600160a060020a03909216919091179055506020820151600282018054600160a060020a031916600160a060020a039290921691909117905560408201516003919091018054600160a060020a031916600160a060020a0390921691909117905550505050565b60005b60035481101561086a5782600160a060020a031660038281548110151561098d57fe5b600091825260209091200154600160a060020a031614156109e657816003828154811015156109b857fe5b60009182526020909120018054600160a060020a031916600160a060020a039290921691909117905561086a565b60010161096a565b60206040519081016040526000815290565b604080519081016040526000808252602082015290565b608060405190810160405280610a2b610a00565b8152600060208201819052604090910152905600a165627a7a72305820439334fb4821887ddd7d563ea7220d1f76ca3bcf3663db9997b26258ff6bcfc50029",
  "source": "/*\n1. Complete implementation of prototype. \n\t1a. killswitches \n  \t\t1. Token holder can force refund with existing funds with super-majority (90%)\n      2. Board members can force refund with iff all agree \n  1b. (paused) non-transferable tokens with voting power that doesn't actually result in funds being sent yet\n2. White paper with the full final spec and info\n3. ReimplemenTation with unit tests first, contract, and web based app\n3a. Web app includes support for hardware device signing (OMG VUE2) (probably will want to fork MEW for that)\n\nWe want pausable tokens, intially non-transferable --> Use open zepplin contract\n*/\n\npragma solidity ^0.4.15; // 17\n\n\ncontract DevDao {\n\n  //  enum State { \n\n   // }\n        // structs\n    address currentCustodian;\n    mapping(address => int) private custodianVotes;\n\n    struct BoardMemberSubstitutionVote {\n        address currentBoardMember;\n        address replacementBoardMember;\n    }\n\n    struct BoardMember {\n        BoardMemberSubstitutionVote boardMemberSubstitutionVote;\n        address votedCustodian; // \n        address migrationAddress;\n    }\n\n        // state\n    \n    // array of board members / key holders\n    mapping (address => BoardMember) private boardMembersMap;\n    address[] private boardMembersAddresses;\n    // sets the max cap that the custodian can direct per day\n        // uint private maxPercentWithdrawalPerDay = 1;\n\n\n    // only used by determineBlahBlah\n    mapping (address => mapping(address => uint)) private replacementBoardMemberVotes;\n\n\n        // getters\n\n    function getBoardMembersAddresses() public returns (address[]) {\n        return boardMembersAddresses;\n    }\n\n    function getCurrentCustodian() public returns (address) {\n        return currentCustodian;\n    }\n\n        // modifiers\n\n\n    // ensure that callers are BoardMembers\n    modifier onlyBoardMembers() {\n        bool callerIsBoardMember = isCallerBoardMember();\n        if (callerIsBoardMember) {\n            _;\n        } else {\n            revert();\n        }\n    }\n\n    // ensure that caller is Custodian. Computed by consensus (5 of 7) custodian implied by current BoardMembers state\n    modifier onlyCustodian() {\n        if (msg.sender == currentCustodian) {\n            _;\n        } else {\n            revert();\n        }\n    }\n\n        // functions\n\n    // construct and initialize boardMemberConfigurationsMap and boardMembers\n    function DevDao(address[] initialBoardMembers) public {\n        if (initialBoardMembers.length == 7) {\n            boardMembersAddresses = initialBoardMembers;\n            for (uint i = 0; i < initialBoardMembers.length; i++) { //Check if this is needed\n                BoardMember memory boardMember;\n                boardMembersMap[initialBoardMembers[i]] = boardMember;\n            }\n        } else {\n            revert();\n        }\n    }\n\n\n    function isCallerBoardMember() public returns (bool) {\n        bool addressFound = false;\n        for (uint i = 0; i < boardMembersAddresses.length; i++) {\n            if (msg.sender == boardMembersAddresses[i]) {\n                addressFound = true;\n                break;\n            }\n        }\n        return addressFound;\n    }\n\n    // return current custodian\n    // Note: Could be contract or externally owned account\n    function getCustodian() public returns (address) {\n        for (uint i = 0; i < boardMembersAddresses.length; i++) {\n            // custodian address key does not exist in mapping\n            BoardMember storage b = boardMembersMap[boardMembersAddresses[i]];\n            if (custodianVotes[b.votedCustodian] == 0) {\n                custodianVotes[b.votedCustodian] = 1;\n            // custodian address key already exists in mapping\n            } else {\n                // increment vote by 1\n                custodianVotes[b.votedCustodian] += 1;\n                // if (at least) 5 board members are voting for this custodian and the caller matches the voted for address, continue\n                if (custodianVotes[b.votedCustodian] == 5) {\n                    clearCustodianVotes();\n                    return b.votedCustodian;\n                }\n            }\n        }\n        clearCustodianVotes();\n        return address(0);\n    }\n\n    function determineIfBoardMemberIsVotedOut(address boardMember) public returns (bool, address) {\n        // iterate through boardMembers and determine if there is consensus to replace a boardMember\n        address[] memory existingBoardMemberToReplaceArray;\n        address[] memory replacementBoardMemberAddressArray;\n\n        for (uint i = 0; i < boardMembersAddresses.length; i++) {\n            BoardMemberSubstitutionVote storage curSubVote = boardMembersMap[boardMembersAddresses[i]].boardMemberSubstitutionVote;\n\n            address existingBoardMemberToReplace = curSubVote.currentBoardMember;\n            address replacementBoardMemberAddress = curSubVote.replacementBoardMember;\n\n            existingBoardMemberToReplaceArray[i] = existingBoardMemberToReplace;\n            replacementBoardMemberAddressArray[i] = replacementBoardMemberAddress;\n\n            if (replacementBoardMemberVotes[existingBoardMemberToReplace][replacementBoardMemberAddress] == 0) {\n                replacementBoardMemberVotes[existingBoardMemberToReplace][replacementBoardMemberAddress] = 1;\n            } else {\n                replacementBoardMemberVotes[existingBoardMemberToReplace][replacementBoardMemberAddress] += 1;\n                if (replacementBoardMemberVotes[existingBoardMemberToReplace][replacementBoardMemberAddress] == 5 && existingBoardMemberToReplace == boardMember) {\n                    clearReplacementBoardMemberVotes(existingBoardMemberToReplaceArray, replacementBoardMemberAddressArray);\n                    return (true, replacementBoardMemberAddress);\n                }\n            }\n        }\n\n        clearReplacementBoardMemberVotes(existingBoardMemberToReplaceArray, replacementBoardMemberAddressArray);\n        return (false, address(0x0));\n    }\n\n\n    // modify boardMemberConfigurationsMap state with desired custodian.\n    function setCustodianVote(address newCustodian) public onlyBoardMembers {\n        boardMembersMap[msg.sender].votedCustodian = newCustodian;\n        currentCustodian = getCustodian();\n    }\n\n    // sets caller state to reflect vote for new board member\n    function setReplacementBoardMember(address currentBoardMember, address replacementBoardMember) public onlyBoardMembers {\n        // set the board-member (modifier enforced) caller's vote for a replacement board member\n        BoardMemberSubstitutionVote memory boardMemberSubstitutionVote;\n        boardMemberSubstitutionVote.currentBoardMember = currentBoardMember;\n        boardMemberSubstitutionVote.replacementBoardMember = replacementBoardMember;\n        boardMembersMap[msg.sender].boardMemberSubstitutionVote = boardMemberSubstitutionVote;\n        replaceBoardMember(currentBoardMember);\n    }\n\n    // set an escape hatch address for a board member\n    function setMigrationAddress(address migrationAddress) public onlyBoardMembers {\n        // set the board-member (modifier enforced) caller's escape hatch address\n        boardMembersMap[msg.sender].migrationAddress = migrationAddress;\n    }\n\n    function sendFunds(address toAddress, uint weiAmount) public onlyCustodian {\n        // send locked with maxPercentWithdrawalPerDay of total funds \n        if (toAddress.call.value(weiAmount)()) {\n            revert();\n        }\n    }\n\n\n    // called by setMigrationAddress\n    function executeMigration() public {\n        // Check if all board members are voting for a specific address.\n        // If so, Send all funds to address\n    }\n\n\n    function clearCustodianVotes() private {\n        for (uint i = 0; i < boardMembersAddresses.length; i++) {\n            delete custodianVotes[boardMembersAddresses[i]];\n        }\n    } \n\n    function clearReplacementBoardMemberVotes(address[] existingBoardMemberToReplaceArray, address[] replacementBoardMemberAddressArray) private {\n        for (uint i = 0; i < existingBoardMemberToReplaceArray.length; i++) {\n            for (uint e = 0; e < replacementBoardMemberAddressArray.length; e++) {\n                address existingAddress = existingBoardMemberToReplaceArray[i];\n                address replacementAddress = replacementBoardMemberAddressArray[e];\n                delete replacementBoardMemberVotes[existingAddress][replacementAddress];\n            }\n        }\n    } \n\n\n    function replaceBoardMemberFromMap(address curBoardMember, address replacementBoardMemberAddress) private {\n        // delete and replace existing key/value from map\n        delete boardMembersMap[curBoardMember];\n        BoardMember memory newBoardMember;\n        boardMembersMap[replacementBoardMemberAddress] = newBoardMember; //Check if this is needed\n    }\n\n    function replaceBoardMemberFromArray(address curBoardMember, address replacementBoardMemberAddress) private {\n        // delete and replace existing address from array\n        for (uint i = 0; i < boardMembersAddresses.length; i++) {\n            if (boardMembersAddresses[i] == curBoardMember) {\n                boardMembersAddresses[i] = replacementBoardMemberAddress;\n                break;\n            }\n        }\n    }\n\n    // called by setReplacementBoardMember\n    function replaceBoardMember(address boardMember) private {\n        var (shouldReplaceBoardMember, replacementBoardMemberAddress) = determineIfBoardMemberIsVotedOut(boardMember);\n        if (shouldReplaceBoardMember) {\n            replaceBoardMemberFromMap(boardMember, replacementBoardMemberAddress);\n            replaceBoardMemberFromArray(boardMember, replacementBoardMemberAddress);\n        }\n    }\n\n\n    // allow funds to be sent to contract\n    function() public payable {}\n\n}\n\n\n// notes\n// Use modifiers for custodian and multisig holders to ensure only they can call functions\n// Set index in the modifier for decorated function to use\n\n\n\n// 1. When swapping out a multi-sig keyholder, clean up the state of their existing vote\n// 2. Use msg.sender instead of tx.from because tx.from inspects the transaction.\n",
  "sourcePath": "/Users/danielternyak2/ActiveDevelopment/DevDAOReal/contracts/DevDAO.sol",
  "schemaVersion": "1.0.0",
  "updatedAt": "2017-10-30T05:55:50.716Z"
}